{
	"data": {
		"bytecode": {
			"linkReferences": {},
			"object": "6080604052348015600e575f80fd5b50610a008061001c5f395ff3fe608060405234801561000f575f80fd5b5060043610610034575f3560e01c806301b8c31c146100385780633eedffd914610068575b5f80fd5b610052600480360381019061004d919061036a565b610084565b60405161005f9190610425565b60405180910390f35b610082600480360381019061007d9190610445565b6101b7565b005b60605f805f3373ffffffffffffffffffffffffffffffffffffffff1673ffffffffffffffffffffffffffffffffffffffff1681526020019081526020015f2084846040516100d39291906104ff565b908152602001604051809103902080546100ec90610544565b80601f016020809104026020016040519081016040528092919081815260200182805461011890610544565b80156101635780601f1061013a57610100808354040283529160200191610163565b820191905f5260205f20905b81548152906001019060200180831161014657829003601f168201915b505050505090505f8151116101ad576040517f08c379a00000000000000000000000000000000000000000000000000000000081526004016101a4906105e4565b60405180910390fd5b8091505092915050565b5f84849050116101fc576040517f08c379a00000000000000000000000000000000000000000000000000000000081526004016101f39061064c565b60405180910390fd5b5f8282905011610241576040517f08c379a0000000000000000000000000000000000000000000000000000000008152600401610238906106b4565b60405180910390fd5b81815f803373ffffffffffffffffffffffffffffffffffffffff1673ffffffffffffffffffffffffffffffffffffffff1681526020019081526020015f20868660405161028f9291906104ff565b908152602001604051809103902091826102aa9291906108af565b503373ffffffffffffffffffffffffffffffffffffffff167f750313e45caf40b2079d26ce7a9f02d1c0797ec7389dfc8755a16680cf1c200685856040516102f39291906109a8565b60405180910390a250505050565b5f80fd5b5f80fd5b5f80fd5b5f80fd5b5f80fd5b5f8083601f84011261032a57610329610309565b5b8235905067ffffffffffffffff8111156103475761034661030d565b5b60208301915083600182028301111561036357610362610311565b5b9250929050565b5f80602083850312156103805761037f610301565b5b5f83013567ffffffffffffffff81111561039d5761039c610305565b5b6103a985828601610315565b92509250509250929050565b5f81519050919050565b5f82825260208201905092915050565b8281835e5f83830152505050565b5f601f19601f8301169050919050565b5f6103f7826103b5565b61040181856103bf565b93506104118185602086016103cf565b61041a816103dd565b840191505092915050565b5f6020820190508181035f83015261043d81846103ed565b905092915050565b5f805f806040858703121561045d5761045c610301565b5b5f85013567ffffffffffffffff81111561047a57610479610305565b5b61048687828801610315565b9450945050602085013567ffffffffffffffff8111156104a9576104a8610305565b5b6104b587828801610315565b925092505092959194509250565b5f81905092915050565b828183375f83830152505050565b5f6104e683856104c3565b93506104f38385846104cd565b82840190509392505050565b5f61050b8284866104db565b91508190509392505050565b7f4e487b71000000000000000000000000000000000000000000000000000000005f52602260045260245ffd5b5f600282049050600182168061055b57607f821691505b60208210810361056e5761056d610517565b5b50919050565b7f50617373776f7264206e6f7420666f756e6420666f72207468697320736572765f8201527f6963650000000000000000000000000000000000000000000000000000000000602082015250565b5f6105ce6023836103bf565b91506105d982610574565b604082019050919050565b5f6020820190508181035f8301526105fb816105c2565b9050919050565b7f53657276696365206e616d652063616e6e6f7420626520656d707479000000005f82015250565b5f610636601c836103bf565b915061064182610602565b602082019050919050565b5f6020820190508181035f8301526106638161062a565b9050919050565b7f50617373776f72642063616e6e6f7420626520656d70747900000000000000005f82015250565b5f61069e6018836103bf565b91506106a98261066a565b602082019050919050565b5f6020820190508181035f8301526106cb81610692565b9050919050565b5f82905092915050565b7f4e487b71000000000000000000000000000000000000000000000000000000005f52604160045260245ffd5b5f819050815f5260205f209050919050565b5f6020601f8301049050919050565b5f82821b905092915050565b5f600883026107657fffffffffffffffffffffffffffffffffffffffffffffffffffffffffffffffff8261072a565b61076f868361072a565b95508019841693508086168417925050509392505050565b5f819050919050565b5f819050919050565b5f6107b36107ae6107a984610787565b610790565b610787565b9050919050565b5f819050919050565b6107cc83610799565b6107e06107d8826107ba565b848454610736565b825550505050565b5f90565b6107f46107e8565b6107ff8184846107c3565b505050565b5b81811015610822576108175f826107ec565b600181019050610805565b5050565b601f8211156108675761083881610709565b6108418461071b565b81016020851015610850578190505b61086461085c8561071b565b830182610804565b50505b505050565b5f82821c905092915050565b5f6108875f198460080261086c565b1980831691505092915050565b5f61089f8383610878565b9150826002028217905092915050565b6108b983836106d2565b67ffffffffffffffff8111156108d2576108d16106dc565b5b6108dc8254610544565b6108e7828285610826565b5f601f831160018114610914575f8415610902578287013590505b61090c8582610894565b865550610973565b601f19841661092286610709565b5f5b8281101561094957848901358255600182019150602085019450602081019050610924565b868310156109665784890135610962601f891682610878565b8355505b6001600288020188555050505b50505050505050565b5f61098783856103bf565b93506109948385846104cd565b61099d836103dd565b840190509392505050565b5f6020820190508181035f8301526109c181848661097c565b9050939250505056fea26469706673582212205bc5ad2e62bade463afa17594109b12058c481b147f7a24de42e53435505b34b64736f6c634300081a0033",
			"opcodes": "PUSH1 0x80 PUSH1 0x40 MSTORE CALLVALUE DUP1 ISZERO PUSH1 0xE JUMPI PUSH0 DUP1 REVERT JUMPDEST POP PUSH2 0xA00 DUP1 PUSH2 0x1C PUSH0 CODECOPY PUSH0 RETURN INVALID PUSH1 0x80 PUSH1 0x40 MSTORE CALLVALUE DUP1 ISZERO PUSH2 0xF JUMPI PUSH0 DUP1 REVERT JUMPDEST POP PUSH1 0x4 CALLDATASIZE LT PUSH2 0x34 JUMPI PUSH0 CALLDATALOAD PUSH1 0xE0 SHR DUP1 PUSH4 0x1B8C31C EQ PUSH2 0x38 JUMPI DUP1 PUSH4 0x3EEDFFD9 EQ PUSH2 0x68 JUMPI JUMPDEST PUSH0 DUP1 REVERT JUMPDEST PUSH2 0x52 PUSH1 0x4 DUP1 CALLDATASIZE SUB DUP2 ADD SWAP1 PUSH2 0x4D SWAP2 SWAP1 PUSH2 0x36A JUMP JUMPDEST PUSH2 0x84 JUMP JUMPDEST PUSH1 0x40 MLOAD PUSH2 0x5F SWAP2 SWAP1 PUSH2 0x425 JUMP JUMPDEST PUSH1 0x40 MLOAD DUP1 SWAP2 SUB SWAP1 RETURN JUMPDEST PUSH2 0x82 PUSH1 0x4 DUP1 CALLDATASIZE SUB DUP2 ADD SWAP1 PUSH2 0x7D SWAP2 SWAP1 PUSH2 0x445 JUMP JUMPDEST PUSH2 0x1B7 JUMP JUMPDEST STOP JUMPDEST PUSH1 0x60 PUSH0 DUP1 PUSH0 CALLER PUSH20 0xFFFFFFFFFFFFFFFFFFFFFFFFFFFFFFFFFFFFFFFF AND PUSH20 0xFFFFFFFFFFFFFFFFFFFFFFFFFFFFFFFFFFFFFFFF AND DUP2 MSTORE PUSH1 0x20 ADD SWAP1 DUP2 MSTORE PUSH1 0x20 ADD PUSH0 KECCAK256 DUP5 DUP5 PUSH1 0x40 MLOAD PUSH2 0xD3 SWAP3 SWAP2 SWAP1 PUSH2 0x4FF JUMP JUMPDEST SWAP1 DUP2 MSTORE PUSH1 0x20 ADD PUSH1 0x40 MLOAD DUP1 SWAP2 SUB SWAP1 KECCAK256 DUP1 SLOAD PUSH2 0xEC SWAP1 PUSH2 0x544 JUMP JUMPDEST DUP1 PUSH1 0x1F ADD PUSH1 0x20 DUP1 SWAP2 DIV MUL PUSH1 0x20 ADD PUSH1 0x40 MLOAD SWAP1 DUP2 ADD PUSH1 0x40 MSTORE DUP1 SWAP3 SWAP2 SWAP1 DUP2 DUP2 MSTORE PUSH1 0x20 ADD DUP3 DUP1 SLOAD PUSH2 0x118 SWAP1 PUSH2 0x544 JUMP JUMPDEST DUP1 ISZERO PUSH2 0x163 JUMPI DUP1 PUSH1 0x1F LT PUSH2 0x13A JUMPI PUSH2 0x100 DUP1 DUP4 SLOAD DIV MUL DUP4 MSTORE SWAP2 PUSH1 0x20 ADD SWAP2 PUSH2 0x163 JUMP JUMPDEST DUP3 ADD SWAP2 SWAP1 PUSH0 MSTORE PUSH1 0x20 PUSH0 KECCAK256 SWAP1 JUMPDEST DUP2 SLOAD DUP2 MSTORE SWAP1 PUSH1 0x1 ADD SWAP1 PUSH1 0x20 ADD DUP1 DUP4 GT PUSH2 0x146 JUMPI DUP3 SWAP1 SUB PUSH1 0x1F AND DUP3 ADD SWAP2 JUMPDEST POP POP POP POP POP SWAP1 POP PUSH0 DUP2 MLOAD GT PUSH2 0x1AD JUMPI PUSH1 0x40 MLOAD PUSH32 0x8C379A000000000000000000000000000000000000000000000000000000000 DUP2 MSTORE PUSH1 0x4 ADD PUSH2 0x1A4 SWAP1 PUSH2 0x5E4 JUMP JUMPDEST PUSH1 0x40 MLOAD DUP1 SWAP2 SUB SWAP1 REVERT JUMPDEST DUP1 SWAP2 POP POP SWAP3 SWAP2 POP POP JUMP JUMPDEST PUSH0 DUP5 DUP5 SWAP1 POP GT PUSH2 0x1FC JUMPI PUSH1 0x40 MLOAD PUSH32 0x8C379A000000000000000000000000000000000000000000000000000000000 DUP2 MSTORE PUSH1 0x4 ADD PUSH2 0x1F3 SWAP1 PUSH2 0x64C JUMP JUMPDEST PUSH1 0x40 MLOAD DUP1 SWAP2 SUB SWAP1 REVERT JUMPDEST PUSH0 DUP3 DUP3 SWAP1 POP GT PUSH2 0x241 JUMPI PUSH1 0x40 MLOAD PUSH32 0x8C379A000000000000000000000000000000000000000000000000000000000 DUP2 MSTORE PUSH1 0x4 ADD PUSH2 0x238 SWAP1 PUSH2 0x6B4 JUMP JUMPDEST PUSH1 0x40 MLOAD DUP1 SWAP2 SUB SWAP1 REVERT JUMPDEST DUP2 DUP2 PUSH0 DUP1 CALLER PUSH20 0xFFFFFFFFFFFFFFFFFFFFFFFFFFFFFFFFFFFFFFFF AND PUSH20 0xFFFFFFFFFFFFFFFFFFFFFFFFFFFFFFFFFFFFFFFF AND DUP2 MSTORE PUSH1 0x20 ADD SWAP1 DUP2 MSTORE PUSH1 0x20 ADD PUSH0 KECCAK256 DUP7 DUP7 PUSH1 0x40 MLOAD PUSH2 0x28F SWAP3 SWAP2 SWAP1 PUSH2 0x4FF JUMP JUMPDEST SWAP1 DUP2 MSTORE PUSH1 0x20 ADD PUSH1 0x40 MLOAD DUP1 SWAP2 SUB SWAP1 KECCAK256 SWAP2 DUP3 PUSH2 0x2AA SWAP3 SWAP2 SWAP1 PUSH2 0x8AF JUMP JUMPDEST POP CALLER PUSH20 0xFFFFFFFFFFFFFFFFFFFFFFFFFFFFFFFFFFFFFFFF AND PUSH32 0x750313E45CAF40B2079D26CE7A9F02D1C0797EC7389DFC8755A16680CF1C2006 DUP6 DUP6 PUSH1 0x40 MLOAD PUSH2 0x2F3 SWAP3 SWAP2 SWAP1 PUSH2 0x9A8 JUMP JUMPDEST PUSH1 0x40 MLOAD DUP1 SWAP2 SUB SWAP1 LOG2 POP POP POP POP JUMP JUMPDEST PUSH0 DUP1 REVERT JUMPDEST PUSH0 DUP1 REVERT JUMPDEST PUSH0 DUP1 REVERT JUMPDEST PUSH0 DUP1 REVERT JUMPDEST PUSH0 DUP1 REVERT JUMPDEST PUSH0 DUP1 DUP4 PUSH1 0x1F DUP5 ADD SLT PUSH2 0x32A JUMPI PUSH2 0x329 PUSH2 0x309 JUMP JUMPDEST JUMPDEST DUP3 CALLDATALOAD SWAP1 POP PUSH8 0xFFFFFFFFFFFFFFFF DUP2 GT ISZERO PUSH2 0x347 JUMPI PUSH2 0x346 PUSH2 0x30D JUMP JUMPDEST JUMPDEST PUSH1 0x20 DUP4 ADD SWAP2 POP DUP4 PUSH1 0x1 DUP3 MUL DUP4 ADD GT ISZERO PUSH2 0x363 JUMPI PUSH2 0x362 PUSH2 0x311 JUMP JUMPDEST JUMPDEST SWAP3 POP SWAP3 SWAP1 POP JUMP JUMPDEST PUSH0 DUP1 PUSH1 0x20 DUP4 DUP6 SUB SLT ISZERO PUSH2 0x380 JUMPI PUSH2 0x37F PUSH2 0x301 JUMP JUMPDEST JUMPDEST PUSH0 DUP4 ADD CALLDATALOAD PUSH8 0xFFFFFFFFFFFFFFFF DUP2 GT ISZERO PUSH2 0x39D JUMPI PUSH2 0x39C PUSH2 0x305 JUMP JUMPDEST JUMPDEST PUSH2 0x3A9 DUP6 DUP3 DUP7 ADD PUSH2 0x315 JUMP JUMPDEST SWAP3 POP SWAP3 POP POP SWAP3 POP SWAP3 SWAP1 POP JUMP JUMPDEST PUSH0 DUP2 MLOAD SWAP1 POP SWAP2 SWAP1 POP JUMP JUMPDEST PUSH0 DUP3 DUP3 MSTORE PUSH1 0x20 DUP3 ADD SWAP1 POP SWAP3 SWAP2 POP POP JUMP JUMPDEST DUP3 DUP2 DUP4 MCOPY PUSH0 DUP4 DUP4 ADD MSTORE POP POP POP JUMP JUMPDEST PUSH0 PUSH1 0x1F NOT PUSH1 0x1F DUP4 ADD AND SWAP1 POP SWAP2 SWAP1 POP JUMP JUMPDEST PUSH0 PUSH2 0x3F7 DUP3 PUSH2 0x3B5 JUMP JUMPDEST PUSH2 0x401 DUP2 DUP6 PUSH2 0x3BF JUMP JUMPDEST SWAP4 POP PUSH2 0x411 DUP2 DUP6 PUSH1 0x20 DUP7 ADD PUSH2 0x3CF JUMP JUMPDEST PUSH2 0x41A DUP2 PUSH2 0x3DD JUMP JUMPDEST DUP5 ADD SWAP2 POP POP SWAP3 SWAP2 POP POP JUMP JUMPDEST PUSH0 PUSH1 0x20 DUP3 ADD SWAP1 POP DUP2 DUP2 SUB PUSH0 DUP4 ADD MSTORE PUSH2 0x43D DUP2 DUP5 PUSH2 0x3ED JUMP JUMPDEST SWAP1 POP SWAP3 SWAP2 POP POP JUMP JUMPDEST PUSH0 DUP1 PUSH0 DUP1 PUSH1 0x40 DUP6 DUP8 SUB SLT ISZERO PUSH2 0x45D JUMPI PUSH2 0x45C PUSH2 0x301 JUMP JUMPDEST JUMPDEST PUSH0 DUP6 ADD CALLDATALOAD PUSH8 0xFFFFFFFFFFFFFFFF DUP2 GT ISZERO PUSH2 0x47A JUMPI PUSH2 0x479 PUSH2 0x305 JUMP JUMPDEST JUMPDEST PUSH2 0x486 DUP8 DUP3 DUP9 ADD PUSH2 0x315 JUMP JUMPDEST SWAP5 POP SWAP5 POP POP PUSH1 0x20 DUP6 ADD CALLDATALOAD PUSH8 0xFFFFFFFFFFFFFFFF DUP2 GT ISZERO PUSH2 0x4A9 JUMPI PUSH2 0x4A8 PUSH2 0x305 JUMP JUMPDEST JUMPDEST PUSH2 0x4B5 DUP8 DUP3 DUP9 ADD PUSH2 0x315 JUMP JUMPDEST SWAP3 POP SWAP3 POP POP SWAP3 SWAP6 SWAP2 SWAP5 POP SWAP3 POP JUMP JUMPDEST PUSH0 DUP2 SWAP1 POP SWAP3 SWAP2 POP POP JUMP JUMPDEST DUP3 DUP2 DUP4 CALLDATACOPY PUSH0 DUP4 DUP4 ADD MSTORE POP POP POP JUMP JUMPDEST PUSH0 PUSH2 0x4E6 DUP4 DUP6 PUSH2 0x4C3 JUMP JUMPDEST SWAP4 POP PUSH2 0x4F3 DUP4 DUP6 DUP5 PUSH2 0x4CD JUMP JUMPDEST DUP3 DUP5 ADD SWAP1 POP SWAP4 SWAP3 POP POP POP JUMP JUMPDEST PUSH0 PUSH2 0x50B DUP3 DUP5 DUP7 PUSH2 0x4DB JUMP JUMPDEST SWAP2 POP DUP2 SWAP1 POP SWAP4 SWAP3 POP POP POP JUMP JUMPDEST PUSH32 0x4E487B7100000000000000000000000000000000000000000000000000000000 PUSH0 MSTORE PUSH1 0x22 PUSH1 0x4 MSTORE PUSH1 0x24 PUSH0 REVERT JUMPDEST PUSH0 PUSH1 0x2 DUP3 DIV SWAP1 POP PUSH1 0x1 DUP3 AND DUP1 PUSH2 0x55B JUMPI PUSH1 0x7F DUP3 AND SWAP2 POP JUMPDEST PUSH1 0x20 DUP3 LT DUP2 SUB PUSH2 0x56E JUMPI PUSH2 0x56D PUSH2 0x517 JUMP JUMPDEST JUMPDEST POP SWAP2 SWAP1 POP JUMP JUMPDEST PUSH32 0x50617373776F7264206E6F7420666F756E6420666F7220746869732073657276 PUSH0 DUP3 ADD MSTORE PUSH32 0x6963650000000000000000000000000000000000000000000000000000000000 PUSH1 0x20 DUP3 ADD MSTORE POP JUMP JUMPDEST PUSH0 PUSH2 0x5CE PUSH1 0x23 DUP4 PUSH2 0x3BF JUMP JUMPDEST SWAP2 POP PUSH2 0x5D9 DUP3 PUSH2 0x574 JUMP JUMPDEST PUSH1 0x40 DUP3 ADD SWAP1 POP SWAP2 SWAP1 POP JUMP JUMPDEST PUSH0 PUSH1 0x20 DUP3 ADD SWAP1 POP DUP2 DUP2 SUB PUSH0 DUP4 ADD MSTORE PUSH2 0x5FB DUP2 PUSH2 0x5C2 JUMP JUMPDEST SWAP1 POP SWAP2 SWAP1 POP JUMP JUMPDEST PUSH32 0x53657276696365206E616D652063616E6E6F7420626520656D70747900000000 PUSH0 DUP3 ADD MSTORE POP JUMP JUMPDEST PUSH0 PUSH2 0x636 PUSH1 0x1C DUP4 PUSH2 0x3BF JUMP JUMPDEST SWAP2 POP PUSH2 0x641 DUP3 PUSH2 0x602 JUMP JUMPDEST PUSH1 0x20 DUP3 ADD SWAP1 POP SWAP2 SWAP1 POP JUMP JUMPDEST PUSH0 PUSH1 0x20 DUP3 ADD SWAP1 POP DUP2 DUP2 SUB PUSH0 DUP4 ADD MSTORE PUSH2 0x663 DUP2 PUSH2 0x62A JUMP JUMPDEST SWAP1 POP SWAP2 SWAP1 POP JUMP JUMPDEST PUSH32 0x50617373776F72642063616E6E6F7420626520656D7074790000000000000000 PUSH0 DUP3 ADD MSTORE POP JUMP JUMPDEST PUSH0 PUSH2 0x69E PUSH1 0x18 DUP4 PUSH2 0x3BF JUMP JUMPDEST SWAP2 POP PUSH2 0x6A9 DUP3 PUSH2 0x66A JUMP JUMPDEST PUSH1 0x20 DUP3 ADD SWAP1 POP SWAP2 SWAP1 POP JUMP JUMPDEST PUSH0 PUSH1 0x20 DUP3 ADD SWAP1 POP DUP2 DUP2 SUB PUSH0 DUP4 ADD MSTORE PUSH2 0x6CB DUP2 PUSH2 0x692 JUMP JUMPDEST SWAP1 POP SWAP2 SWAP1 POP JUMP JUMPDEST PUSH0 DUP3 SWAP1 POP SWAP3 SWAP2 POP POP JUMP JUMPDEST PUSH32 0x4E487B7100000000000000000000000000000000000000000000000000000000 PUSH0 MSTORE PUSH1 0x41 PUSH1 0x4 MSTORE PUSH1 0x24 PUSH0 REVERT JUMPDEST PUSH0 DUP2 SWAP1 POP DUP2 PUSH0 MSTORE PUSH1 0x20 PUSH0 KECCAK256 SWAP1 POP SWAP2 SWAP1 POP JUMP JUMPDEST PUSH0 PUSH1 0x20 PUSH1 0x1F DUP4 ADD DIV SWAP1 POP SWAP2 SWAP1 POP JUMP JUMPDEST PUSH0 DUP3 DUP3 SHL SWAP1 POP SWAP3 SWAP2 POP POP JUMP JUMPDEST PUSH0 PUSH1 0x8 DUP4 MUL PUSH2 0x765 PUSH32 0xFFFFFFFFFFFFFFFFFFFFFFFFFFFFFFFFFFFFFFFFFFFFFFFFFFFFFFFFFFFFFFFF DUP3 PUSH2 0x72A JUMP JUMPDEST PUSH2 0x76F DUP7 DUP4 PUSH2 0x72A JUMP JUMPDEST SWAP6 POP DUP1 NOT DUP5 AND SWAP4 POP DUP1 DUP7 AND DUP5 OR SWAP3 POP POP POP SWAP4 SWAP3 POP POP POP JUMP JUMPDEST PUSH0 DUP2 SWAP1 POP SWAP2 SWAP1 POP JUMP JUMPDEST PUSH0 DUP2 SWAP1 POP SWAP2 SWAP1 POP JUMP JUMPDEST PUSH0 PUSH2 0x7B3 PUSH2 0x7AE PUSH2 0x7A9 DUP5 PUSH2 0x787 JUMP JUMPDEST PUSH2 0x790 JUMP JUMPDEST PUSH2 0x787 JUMP JUMPDEST SWAP1 POP SWAP2 SWAP1 POP JUMP JUMPDEST PUSH0 DUP2 SWAP1 POP SWAP2 SWAP1 POP JUMP JUMPDEST PUSH2 0x7CC DUP4 PUSH2 0x799 JUMP JUMPDEST PUSH2 0x7E0 PUSH2 0x7D8 DUP3 PUSH2 0x7BA JUMP JUMPDEST DUP5 DUP5 SLOAD PUSH2 0x736 JUMP JUMPDEST DUP3 SSTORE POP POP POP POP JUMP JUMPDEST PUSH0 SWAP1 JUMP JUMPDEST PUSH2 0x7F4 PUSH2 0x7E8 JUMP JUMPDEST PUSH2 0x7FF DUP2 DUP5 DUP5 PUSH2 0x7C3 JUMP JUMPDEST POP POP POP JUMP JUMPDEST JUMPDEST DUP2 DUP2 LT ISZERO PUSH2 0x822 JUMPI PUSH2 0x817 PUSH0 DUP3 PUSH2 0x7EC JUMP JUMPDEST PUSH1 0x1 DUP2 ADD SWAP1 POP PUSH2 0x805 JUMP JUMPDEST POP POP JUMP JUMPDEST PUSH1 0x1F DUP3 GT ISZERO PUSH2 0x867 JUMPI PUSH2 0x838 DUP2 PUSH2 0x709 JUMP JUMPDEST PUSH2 0x841 DUP5 PUSH2 0x71B JUMP JUMPDEST DUP2 ADD PUSH1 0x20 DUP6 LT ISZERO PUSH2 0x850 JUMPI DUP2 SWAP1 POP JUMPDEST PUSH2 0x864 PUSH2 0x85C DUP6 PUSH2 0x71B JUMP JUMPDEST DUP4 ADD DUP3 PUSH2 0x804 JUMP JUMPDEST POP POP JUMPDEST POP POP POP JUMP JUMPDEST PUSH0 DUP3 DUP3 SHR SWAP1 POP SWAP3 SWAP2 POP POP JUMP JUMPDEST PUSH0 PUSH2 0x887 PUSH0 NOT DUP5 PUSH1 0x8 MUL PUSH2 0x86C JUMP JUMPDEST NOT DUP1 DUP4 AND SWAP2 POP POP SWAP3 SWAP2 POP POP JUMP JUMPDEST PUSH0 PUSH2 0x89F DUP4 DUP4 PUSH2 0x878 JUMP JUMPDEST SWAP2 POP DUP3 PUSH1 0x2 MUL DUP3 OR SWAP1 POP SWAP3 SWAP2 POP POP JUMP JUMPDEST PUSH2 0x8B9 DUP4 DUP4 PUSH2 0x6D2 JUMP JUMPDEST PUSH8 0xFFFFFFFFFFFFFFFF DUP2 GT ISZERO PUSH2 0x8D2 JUMPI PUSH2 0x8D1 PUSH2 0x6DC JUMP JUMPDEST JUMPDEST PUSH2 0x8DC DUP3 SLOAD PUSH2 0x544 JUMP JUMPDEST PUSH2 0x8E7 DUP3 DUP3 DUP6 PUSH2 0x826 JUMP JUMPDEST PUSH0 PUSH1 0x1F DUP4 GT PUSH1 0x1 DUP2 EQ PUSH2 0x914 JUMPI PUSH0 DUP5 ISZERO PUSH2 0x902 JUMPI DUP3 DUP8 ADD CALLDATALOAD SWAP1 POP JUMPDEST PUSH2 0x90C DUP6 DUP3 PUSH2 0x894 JUMP JUMPDEST DUP7 SSTORE POP PUSH2 0x973 JUMP JUMPDEST PUSH1 0x1F NOT DUP5 AND PUSH2 0x922 DUP7 PUSH2 0x709 JUMP JUMPDEST PUSH0 JUMPDEST DUP3 DUP2 LT ISZERO PUSH2 0x949 JUMPI DUP5 DUP10 ADD CALLDATALOAD DUP3 SSTORE PUSH1 0x1 DUP3 ADD SWAP2 POP PUSH1 0x20 DUP6 ADD SWAP5 POP PUSH1 0x20 DUP2 ADD SWAP1 POP PUSH2 0x924 JUMP JUMPDEST DUP7 DUP4 LT ISZERO PUSH2 0x966 JUMPI DUP5 DUP10 ADD CALLDATALOAD PUSH2 0x962 PUSH1 0x1F DUP10 AND DUP3 PUSH2 0x878 JUMP JUMPDEST DUP4 SSTORE POP JUMPDEST PUSH1 0x1 PUSH1 0x2 DUP9 MUL ADD DUP9 SSTORE POP POP POP JUMPDEST POP POP POP POP POP POP POP JUMP JUMPDEST PUSH0 PUSH2 0x987 DUP4 DUP6 PUSH2 0x3BF JUMP JUMPDEST SWAP4 POP PUSH2 0x994 DUP4 DUP6 DUP5 PUSH2 0x4CD JUMP JUMPDEST PUSH2 0x99D DUP4 PUSH2 0x3DD JUMP JUMPDEST DUP5 ADD SWAP1 POP SWAP4 SWAP3 POP POP POP JUMP JUMPDEST PUSH0 PUSH1 0x20 DUP3 ADD SWAP1 POP DUP2 DUP2 SUB PUSH0 DUP4 ADD MSTORE PUSH2 0x9C1 DUP2 DUP5 DUP7 PUSH2 0x97C JUMP JUMPDEST SWAP1 POP SWAP4 SWAP3 POP POP POP JUMP INVALID LOG2 PUSH5 0x6970667358 0x22 SLT KECCAK256 JUMPDEST 0xC5 0xAD 0x2E PUSH3 0xBADE46 GASPRICE STATICCALL OR MSIZE COINBASE MULMOD 0xB1 KECCAK256 PC 0xC4 DUP2 0xB1 SELFBALANCE 0xF7 LOG2 0x4D 0xE4 0x2E MSTORE8 NUMBER SSTORE SDIV 0xB3 0x4B PUSH5 0x736F6C6343 STOP ADDMOD BYTE STOP CALLER "
		},
		"gasEstimates": {
			"creation": {
				"codeDepositCost": "512000",
				"executionCost": "541",
				"totalCost": "512541"
			},
			"external": {
				"getPassword(string)": "infinite",
				"storePassword(string,string)": "infinite"
			}
		},
		"methodIdentifiers": {
			"getPassword(string)": "01b8c31c",
			"storePassword(string,string)": "3eedffd9"
		}
	},
	"abi": [
		{
			"anonymous": false,
			"inputs": [
				{
					"indexed": true,
					"internalType": "address",
					"name": "user",
					"type": "address"
				},
				{
					"indexed": false,
					"internalType": "string",
					"name": "serviceName",
					"type": "string"
				}
			],
			"name": "PasswordStored",
			"type": "event"
		},
		{
			"inputs": [
				{
					"internalType": "string",
					"name": "serviceName",
					"type": "string"
				}
			],
			"name": "getPassword",
			"outputs": [
				{
					"internalType": "string",
					"name": "",
					"type": "string"
				}
			],
			"stateMutability": "view",
			"type": "function"
		},
		{
			"inputs": [
				{
					"internalType": "string",
					"name": "serviceName",
					"type": "string"
				},
				{
					"internalType": "string",
					"name": "password",
					"type": "string"
				}
			],
			"name": "storePassword",
			"outputs": [],
			"stateMutability": "nonpayable",
			"type": "function"
		}
	]
}